:100723007374617274202E2E2E0A00543020546587
:080733007374202E2E2E0A0023
:1007810050005000000000000000000000000000C8
:0307910000000065
:10063D001207957F057E0012075312051C7BFF7A6A
:10064D000779231200797BFF7A07792E12007953EF
:10065D00C9EF7D02E4FF1206777455FDFCE4FF122D
:0A066D0006AAD28CD2A9D2AF80FEFB
:1007950075A15575A1AAE5B954F84404F5B9E4F570
:0207A500A1228F
:0E07B900EF4E600905A1EF1F70F61E80F322BF
:10075300AD07AC06ED4C600E7FE87E031207B9EDE2
:070763001D70F11C80EE2265
:0407DD0043C61022DD
:10051C00C29FD29EC29DC2CDC2CC43878090002880
:10052C0012044D00000082E47B0AFAF9F8900028CE
:10053C00E0FCA3E0FDA3E0FEA3E0FF1203AF9000FC
:10054C002CEBF0900028E0FCA3E0FDA3E0FEA3E080
:10055C00FFE47B0AFAF9F81203AF90002812044169
:10056C0090002CE0C39405401F900028E0FCA3E011
:10057C00FDA3E0FEA3E02401FFE43EFEE43DFDE428
:10058C003CFC900028120441E589540F4420F58965
:10059C0043C9A0900028A3A3A3E0F404F58DD28E48
:0405AC00D299D29C72
:0105B0002228
:080003003098FDC298AF99226C
:0807D5008F993099FDC29922B1
:10076A0075A15575A1AAEF600543B101800353B184
:07077A00FEE4F5A1F5FF22EA
:0307E1008FFF2265
:0E07C700743020696E746572727570740A0069
:10067700EF7009E58954F04DF5898024EFB4011135
:10068700CFEDCFEFC454F0FFE589540F4FF58980C4
:100697000FEFB40208C2CDC2CCC2C880037FFF22CD
:0306A7007F0022AF
:1006AA00C3E49DFDE49CFCEF7007EDF58AECF58C44
:1006BA0022EFB40107EDF58BECF58D22EFB4020EB3
:0E06CA00CFEDCFEDF5CC8FCAECFFF5CD8FCB89
:0106D80022FF
:1007A700C2CDC2CCC2C9D2CBD2C8EF25E025E04228
:0207B700C92255
:10073B00C2CDC2CCD2C8C2C9EF25E025E0FFE5C9C6
:08074B0054FD4F4401F5C922E1
:03000B00020700E9
:10070000C0E0C0F0C083C082C0D075D008B2977B73
:10071000FF7A0779C7120079D0D0D082D083D0F089
:03072000D0E032F4
:030000000205B145
:0C05B100787FE4F6D8FD7581220205F881
:1003730075F008758200EF2FFFEE33FECD33CDCC41
:1003830033CCC58233C5829BED9AEC99E5829840C4
:100393000CF582EE9BFEED9AFDEC99FC0FD5F0D6A1
:1003A300E4CEFBE4CDFAE4CCF9A88222B800C1B9CB
:1003B3000059BA002DEC8BF084CFCECDFCE5F0CB09
:1003C300F97818EF2FFFEE33FEED33FDEC33FCEB42
:1003D30033FB10D703994004EB99FB0FD8E5E4F9FD
:1003E300FA227818EF2FFFEE33FEED33FDEC33FCEA
:1003F300C933C910D7059BE99A4007EC9BFCE99ADE
:10040300F90FD8E0E4C9FAE4CCFB2275F010EF2F22
:10041300FFEE33FEED33FDCC33CCC833C810D70722
:100423009BEC9AE899400AED9BFDEC9AFCE899F85D
:0E0433000FD5F0DAE4CDFBE4CCFAE4C8F922F0
:0C044100ECF0A3EDF0A3EEF0A3EFF0222E
:10044D00A8828583F0D083D08212046412046412D2
:10045D000464120464E473E493A3C583C5F0C583F7
:10046D00C8C582C8F0A3C583C5F0C583C8C582C8F9
:01047D00225C
:10000E00E515242BF582E43400F583E005152290E6
:10001E00002830100390002BE475F0011204D60274
:10002E00047E2009E97F2ED2098018EF540F249008
:10003E00D43440D4FF300D0BEF24BFB41A0050035C
:10004E002461FFE516600215160519E51970020503
:10005E001830100E900028E475F0011204D6EF024D
:10006E0004C40206D97403D2108003E4C210F5153D
:10007E009000281204EDE4F516F518F519E5166052
:10008E00077F2012005180F57517FFC20AC209C200
:10009E000BC20CC20EC20FC21112001DFF700D302A
:1000AE0010057F00120062AF19AE1822B4255FC290
:1000BE00D5C20D12001DFF24D0B40A00501A75F0DF
:1000CE000A781630D50508B6FF0106C6A426F62016
:1000DE00D5047002D20C80D924CFB41A00EF50048C
:1000EE00C2E5D20D020263D20A80C6D20980C0D206
:1000FE000B80BCD2D580BAD20E80B47F20120051B4
:10010E00200B077401B5160040F112000EFF12000D
:10011E005102008BD211D20F809512000EFB1200ED
:10012E000EFA12000EF94A4B700679347A037BFFF1
:10013E00200B2EE516602A7E008E82758300120437
:10014E009760060EEE651770F0C2D5EBC0E0EAC000
:10015E00E0E9C0E0EE1202AAD0E0F9D0E0FAD0E079
:10016E00FB12047EFF60AAEBC0E0EAC0E0E9C0E04B
:10017E00120051D0E02401F9D0E03400FAD0E0FBB7
:10018E00E5170460DCD517D980877BFF7A0279A644
:10019E00D20B809C791080027908C20FC2118008A0
:1001AE00D2D5790A8004790AC2D5E517047002F512
:1001BE0017E4FAFDFEFF12000EFC7B08200A131254
:1001CE00000EFD7B1030090A12000EFE12000EFF0B
:1001DE007B20EC3382D592D55013C3E43009069FB1
:1001EE00FFE49EFEE4200A039DFDE49CFCE4CBF8B4
:1001FE00C20AEC700CCFCECDCCE824F8F870F380A8
:10020E0017C3EF33FFEE33FEED33FDEC33FCEB3370
:10021E00FB994002FB0FD8E9EB300A05F8D0E0C499
:10022E0048B20AC0E00AEC4D4E4F78207B0070C2F7
:10023E00EAB5170040BCC0E01202ACD0F0D0E0200E
:10024E000A04C4C0E0C4B20AC0F012003AD0F0D51D
:10025E00F0EB02008B1204F601285301A25800F9AC
:10026E004C00F54201A64F01AE4401AE49010E43CA
:08027E0001B4550198460198F6
:100286004501984703545000FD2D01012E01242BF2
:10029600010523012220033D2A00BD480000011C60
:1002A6003F3F3F00790AA2D5200C14300E09B91041
:1002B600020404B9080104A2D5200F02500104204B
:1002C6000B68920BB516005034C0E07F20300C1935
:1002D6007F30A20B720F720E500F120303C20BC2B5
:1002E6000FC20EC2117F30800F300E03E9C0E0123C
:1002F6000051300E03D0E0F9D0E0B516CC300E1721
:100306007F30B9100C1200517F58300D077F78806E
:1003160003B90803120051300B057F2D0200517FEF
:10032600202011F87F2B200FF322920B80CF286E0E
:10033600756C6C2900D20A12000E300AF8C20A78CF
:100346001630D50108F60200BD2D5043495812005B
:100356000E2403B405004001E490034F93120042BB
:0D036600743A120042D20C7516040201A276
:1005BD0002063DE493A3F8E493A34003F68001F211
:1005CD0008DFF48029E493A3F85407240CC8C3333F
:1005DD00C4540F4420C8834004F456800146F6DF0E
:1005ED00E4800B0102040810204080900781E47E16
:1005FD00019360BCA3FF543F30E509541FFEE49303
:10060D00A360010ECF54C025E060A840B8E493A3C9
:10061D00FAE493A3F8E493A3C8C582C8CAC583CAF4
:10062D00F0A3C8C582C8CAC583CADFE9DEE780BEAC
:010794000064
:10047E00BB010689828A83E0225002E722BBFE027C
:09048E00E32289828A83E49322AF
:10049700BB010CE58229F582E5833AF583E022501A
:1004A70006E92582F8E622BBFE06E92582F8E22264
:0D04B700E58229F582E5833AF583E493227E
:1004C400BB010689828A83F0225002F722BBFE0117
:0204D400F32211
:1004D600F8E0FBA3A3E0F925F0F0E58215827002AF
:0704E6001583E0FA38F02253
:0904ED00EBF0A3EAF0A3E9F02210
:1004F600D083D082F8E4937012740193700DA3A395
:1005060093F8740193F5828883E4737402936860A8
:06051600EFA3A3A380DFA8
:1006D900EFB40A07740D1206E4740A309811A89948
:1006E900B8130CC2983098FDA899C298B811F63081
:0706F90099FDC299F5992259
:00000001FF
