:0500C1004200000000F8
:10008F00B2B29000007427F0A37410F090000074C7
:0C009F00FFF5F01200AB45F060E680F0C9
:03000000020003F8
:0C000300787FE4F6D8FD75810702004A02
:1000AB00A3F8E0C5F025F0F0E58215827002158308
:0600BB00E0C838F0E82265
:10000F0002008FE493A3F8E493A34003F68001F278
:10001F0008DFF48029E493A3F85407240CC8C333F2
:10002F00C4540F4420C8834004F456800146F6DFC1
:10003F00E4800B01020408102040809000C1E47E90
:10004F00019360BCA3FF543F30E509541FFEE493B6
:10005F00A360010ECF54C025E060A840B8E493A37D
:10006F00FAE493A3F8E493A3C8C582C8CAC583CAA8
:10007F00F0A3C8C582C8CAC583CADFE9DEE780BE60
:0100C6000039
:00000001FF
