:100CB60075A15575A1AAE5B954F84404F5B9E4F54A
:020CC600A12269
:0E0CD900EF4E600905A1EF1F70F61E80F3229A
:100C8800AD07AC06ED4C600E7FE87E03120CD9ED83
:070C98001D70F11C80EE222B
:040D160043C610229E
:100A7200C29FD29EC29DC2CDC2CC43878090015CF0
:100A82001209A300000082E47B0AFAF9F890015CE3
:100A9200E0FCA3E0FDA3E0FEA3E0FF120905900144
:100AA20060EBF090015CE0FCA3E0FDA3E0FEA3E0BC
:100AB200FFE47B0AFAF9F812090590015C12099722
:100AC200900160E0C39405401F90015CE0FCA3E04C
:100AD200FDA3E0FEA3E02401FFE43EFEE43DFDE4CD
:100AE2003CFC90015C120997E589540F4420F5897A
:100AF20043C9A090015CA3A3A3E0F404F58DD28EB8
:040B0200D299D29C16
:010B060022CC
:080CF1003098FDC298AF992272
:080CF9008F993099FDC2992288
:0A0CE700C2C7D2C5D2C475C2F32201
:080D010030C0FDC2C0AFC122E9
:080D09008FC130C1FDD2C122EF
:100C9F0075A15575A1AAEF600543B101800353B14A
:070CAF00FEE4F5A1F5FF22B0
:030D1A008FFF2226
:100B07004C69676874206F6E204E756D204C6F635B
:100B17006B204C4544210A004C69676874206F6656
:100B270066204E756D204C6F636B204C4544210A3F
:100B3700007A7A007374617274202E2E2E0A0012C6
:100B4700011001FF000208861A2355040300000064
:100B5700010902270001010080F00904000003FFDA
:100B6700010200070582022000000705020220009B
:100B770000070581030800013000C300FFEC9FEC6C
:100B8700FFECDFECDFECDFEC9FEC9FEC9FEC9FECE6
:020B9700FFEC71
:040D11004101250077
:100C6E0078487C007D017B017A0079E37E007F402D
:0A0C7E0012088D75D50853D4FC222E
:0300430002004672
:0D004600C0E0C0F0C083C082C0D075D008FB
:1000530020D903020406E5D9543F70030203D424D4
:10006300FE602024E2700302036324F06050240E38
:10007300600302040475D500E5D454FC4402F5D4AE
:1000830002040420DE03020404900132E5DBF0E401
:10009300FF900132E0FEEFC39E501B74082FF582E0
:1000A300E43400F583E0FD74482FF582E43400F571
:1000B30083EDF00F80DB8ED553D4FC020404900152
:1000C30032E5DBF0E064086003020336900006E0EB
:1000D300900123F0900007E07009900123E0D3948E
:1000E3007F4006900123747FF0900132E4F090008A
:1000F30001E0900124F0900000E05460606D9001F5
:1001030024E024C060362480703A900125E0FF2467
:100113007FF9E4340BFA90012E74FFF0A3EAF0A305
:10012300E9F09001327402F0EFC394189001255066
:1001330006E02402F080137418F0800E90013274EC
:1001430009F0800690013274FFF0900132E0FF90D5
:100153000123E0D39F4002EFF0900123E0FFC3941B
:100163000840057F080201FC0201FC900124E0B471
:100173000B004003020334900181F8282873020323
:10018300170202690203340202A102033402023697
:100193000201A202033402024102025E02033C9006
:1001A3000003E024FE601904702C90012E74FFF00C
:1001B300A3740BF0A37446F09001327412F0801C08
:1001C30090012E74FFF0A3740BF0A37458F0900108
:1001D300327427F0800690013274FFF0900132E010
:1001E300FF900123E0D39F4002EFF0900123E0FF53
:1001F300C3940840047F088000900132EFF07E0032
:1002030078007C007D0190012EE0FBA3E0FAA3E0DF
:10021300F912088D900123E0FF900132E0FEC3EF55
:100223009E900123F0EEFF90012FE48FF01208B3AC
:1002330002033C900002E0900123F002033C900093
:10024300E0E0900000F0900123E0C394015003022A
:10025300033C9001327401F002033C900002E090F1
:1002630000E0F002033C900000E0541F6402702B96
:10027300900004E024FE601D2481600E147041E5AB
:10028300D454BC4402F5D402033CE5D254BC44022A
:10029300F5D202033C53D47302033C0203369000AD
:1002A30000E0541FFD701B900003E0FE900002E08D
:1002B300FBEB64014E7009900B5F9320E57B807329
:1002C3008071ED6402704B900003E0FE900002E049
:1002D300FDED4E703B900005E0FE900004E0FDED67
:1002E300FFEE702AEF24FE60112481601714701E44
:1002F300E5D454BF4403F5D4803FE5D4547F440C84
:10030300F5D48035E5D254BF4403F5D2802B802346
:100313008021801F900000E4F0A3F0900123E0FF10
:10032300C3940290013240057402F0800CEFF08018
:1003330008800090013274FFF0900132E0FFB4FFB7
:100343000C90012474FFF075DCCF020404EFD39406
:100353000850048FDD800375DD0075DCC0020404E2
:10036300900124E024FB605314705E900123E0FFAE
:10037300C3940840047F088000900132EFF07E00B0
:1003830078007C007D0190012EE0FBA3E0FAA3E05E
:10039300F912088D900123E0FF900132E0FEC3EFD4
:1003A3009E900123F0EEFF90012FE48FF01208B32B
:1003B300900132E0F5DD63DC408046E5E35480FFE5
:1003C300900123E04FF5E3800375DD0075DC0280C7
:1003D30030900132E5DBF0900124E0B4091D900078
:1003E30000E060087BFF7A0B7907800C900000E047
:1003F30070097BFF7A0B791F1204C375DD0075DC6E
:1004030000C2D930D81275DC0275D21075D41275BA
:10041300E300C2DAC2D9C2D830DA2CC2DAE5DA3064
:10042300E2287BFF7A0B79381204C3E5A220E7FBAD
:1004330075A15575A1AA75A98143870275A1557543
:0A044300A1AA75A900800375D8FF77
:0B044D00D0D0D082D083D0F0D0E032BD
:10002B00E4F5E253E27F43E229F5E353E2BF53D118
:08003B00FB75D18043D10122C5
:100C4C0075EF0075EEA075E50075E40875EBCC75D5
:100C5C00D41275D21275ED0075EC0075EA4075DC96
:020C6C00022262
:100CC80043E10443E10243E10143D81FD2EAD2AF32
:010CD80022F9
:10000300120CB67F057E00120C88120A727BFF7AEF
:100013000B793B1204C312002B120C4C120CC8E4D4
:08002300F5DDF5D3F5D580FEF3
:03000000020B9957
:0C0B9900787FE4F6D8FD758122020BE0A5
:1007BD00E709F608DFFA8046E709F208DFFA803E1E
:1007CD0088828C83E709F0A3DFFA8032E309F6080B
:1007DD00DFFA8078E309F208DFFA807088828C8373
:1007ED00E309F0A3DFFA806489828A83E0A3F60827
:1007FD00DFFA805889828A83E0A3F208DFFA804C01
:10080D0080D280FA80C680D4806980F280338010D7
:10081D0080A680EA809A80A880DA80E280CA803340
:10082D0089828A83ECFAE493A3C8C582C8CCC583B8
:10083D00CCF0A3C8C582C8CCC583CCDFE9DEE78088
:10084D000D89828A83E493A3F608DFF9ECFAA9F007
:10085D00EDFB2289828A83ECFAE0A3C8C582C8CC5D
:10086D00C583CCF0A3C8C582C8CCC583CCDFEADE76
:10087D00E880DB89828A83E493A3F208DFF980CCD8
:10088D0088F0EF60010E4E60C388F0ED2402B404D1
:10089D000050B9F582EB2402B4040050AF23234578
:0608AD00822390080D7388
:1008B300C5F0F8A3E028F0C5F0F8E58215827002D0
:0608C3001583E038F0226D
:1008C90075F008758200EF2FFFEE33FECD33CDCCE6
:1008D90033CCC58233C5829BED9AEC99E582984069
:1008E9000CF582EE9BFEED9AFDEC99FC0FD5F0D646
:1008F900E4CEFBE4CDFAE4CCF9A88222B800C1B970
:100909000059BA002DEC8BF084CFCECDFCE5F0CBAD
:10091900F97818EF2FFFEE33FEED33FDEC33FCEBE6
:1009290033FB10D703994004EB99FB0FD8E5E4F9A1
:10093900FA227818EF2FFFEE33FEED33FDEC33FC8E
:10094900C933C910D7059BE99A4007EC9BFCE99A82
:10095900F90FD8E0E4C9FAE4CCFB2275F010EF2FC7
:10096900FFEE33FEED33FDCC33CCC833C810D707C7
:100979009BEC9AE899400AED9BFDEC9AFCE899F802
:0E0989000FD5F0DAE4CDFBE4CCFAE4C8F92295
:0C099700ECF0A3EDF0A3EEF0A3EFF022D3
:1009A300A8828583F0D083D0821209BA1209BA12C1
:1009B30009BA1209BAE473E493A3C583C5F0C583E6
:1009C300C8C582C8F0A3C583C5F0C583C8C582C89E
:0109D3002201
:10045800E515245FF582E43401F583E00515229063
:10046800015C30100390015FE475F001120A2C0260
:1004780009D42009E97F2ED2098018EF540F24905F
:10048800D43440D4FF300D0BEF24BFB41A0050030E
:100498002461FFE516600215160519E519700205B5
:1004A8001830100E90015CE475F001120A2CEF026E
:1004B8000A1A020C257403D2108003E4C210F51541
:1004C80090015C120A43E4F516F518F519E5166073
:1004D800077F2012049B80F57517FFC20AC209C264
:1004E8000BC20CC20EC20FC211120467FF700D308E
:1004F80010057F001204ACAF19AE1822B4255FC2F4
:10050800D5C20D120467FF24D0B40A00501A75F042
:100518000A781630D50508B6FF0106C6A426F620C7
:10052800D5047002D20C80D924CFB41A00EF50043D
:10053800C2E5D20D0206ADD20A80C6D20980C0D269
:100548000B80BCD2D580BAD20E80B47F2012049B17
:10055800200B077401B5160040F1120458FF12046D
:100568009B0204D5D211D20F8095120458FB1204B5
:1005780058FA120458F94A4B7006797E7A077BFFBD
:10058800200B2EE516602A7E008E827583001209E4
:10059800ED60060EEE651770F0C2D5EBC0E0EAC05C
:1005A800E0E9C0E0EE1206F4D0E0F9D0E0FAD0E0DD
:1005B800FB1209D4FF60AAEBC0E0EAC0E0E9C0E0A2
:1005C80012049BD0E02401F9D0E03400FAD0E0FB1B
:1005D800E5170460DCD517D980877BFF7A0679F0A8
:1005E800D20B809C791080027908C20FC211800852
:1005F800D2D5790A8004790AC2D5E517047002F5C4
:1006080017E4FAFDFEFF120458FC7B08200A1312B7
:100618000458FD7B1030090A120458FE120458FFD2
:100628007B20EC3382D592D55013C3E43009069F62
:10063800FFE49EFEE4200A039DFDE49CFCE4CBF865
:10064800C20AEC700CCFCECDCCE824F8F870F38059
:1006580017C3EF33FFEE33FEED33FDEC33FCEB3322
:10066800FB994002FB0FD8E9EB300A05F8D0E0C44B
:1006780048B20AC0E00AEC4D4E4F78207B0070C2A9
:10068800EAB5170040BCC0E01206F6D0F0D0E02072
:100698000A04C4C0E0C4B20AC0F0120484D0F0D581
:1006A800F0EB0204D5120A4C05725305EC580543C9
:1006B8004C053F4205F04F05F84405F849055843F5
:0806C80005FE5505E24605E2BE
:1006D0004505E247079E5005472D054B2E056E2B1D
:1006E000054F23056C2007872A050748000005668B
:1006F0003F3F3F00790AA2D5200C14300E09B910F3
:10070000020404B9080104A2D5200F0250010420FC
:100710000B68920BB516005034C0E07F20300C19E6
:100720007F30A20B720F720E500F12074DC20BC218
:100730000FC20EC2117F30800F300E03E9C0E012ED
:10074000049B300E03D0E0F9D0E0B516CC300E1784
:100750007F30B9100C12049B7F58300D077F7880D2
:1007600003B9080312049B300B057F2D02049B7F05
:10077000202011F87F2B200FF322920B80CF286EC0
:10078000756C6C2900D20A120458300AF8C20A7833
:100790001630D50108F60205072D504349581204BA
:1007A000582403B405004001E49007999312048C87
:0D07B000743A12048CD20C7516040205EC8C
:100BA500020003E493A3F8E493A34003F68001F263
:100BB50008DFF48029E493A3F85407240CC8C33351
:100BC500C4540F4420C8834004F456800146F6DF20
:100BD500E4800B0102040810204080900D11E47E92
:100BE500019360BCA3FF543F30E509541FFEE49315
:100BF500A360010ECF54C025E060A840B8E493A3DC
:100C0500FAE493A3F8E493A3C8C582C8CAC583CA06
:100C1500F0A3C8C582C8CAC583CADFE9DEE780BEBE
:010D150000DD
:1009D400BB010689828A83E0225002E722BBFE0221
:0909E400E32289828A83E4932254
:1009ED00BB010CE58229F582E5833AF583E02250BF
:1009FD0006E92582F8E622BBFE06E92582F8E22209
:0D0A0D00E58229F582E5833AF583E4932222
:100A1A00BB010689828A83F0225002F722BBFE01BB
:020A2A00F322B5
:100A2C00F8E0FBA3A3E0F925F0F0E5821582700253
:070A3C001583E0FA38F022F7
:090A4300EBF0A3EAF0A3E9F022B4
:100A4C00D083D082F8E4937012740193700DA3A339
:100A5C0093F8740193F5828883E47374029368604D
:060A6C00EFA3A3A380DF4D
:100C2500EFB40A07740D120C30740A309811A899A4
:100C3500B8130CC2983098FDA899C298B811F6302F
:070C450099FDC299F5992207
:00000001FF
