:1006760044454255475F444154453A4A756E2030D9
:100686003920323031390A44454255475F54494D85
:0C069600453A32323A34393A35360A001F
:05072700420028000063
:100648001206F71205277BFF7A06797612006E30BC
:10065800B3FDB2B09000287427F0A37410F0900096
:0E0668002874FFF5F012036845F060E380F09F
:1006F70075A15575A1AAE5B954F84404F5B9E4F50F
:02070700A1222D
:0E070900EF4E600905A1EF1F70F61E80F3226F
:1006C900AD07AC06ED4C600E7FE87E03120709ED1D
:0706D9001D70F11C80EE22F0
:04072D0043C610228D
:10052700C29FD29EC29DC2CDC2CC4387809000009D
:1005370012045800000082E47B0AFAF9F8900000E0
:10054700E0FCA3E0FDA3E0FEA3E0FF1203BA9000E6
:1005570004EBF0900000E0FCA3E0FDA3E0FEA3E0C5
:10056700FFE47B0AFAF9F81203BA90000012044C70
:10057700900004E0C39405401F900000E0FCA3E056
:10058700FDA3E0FEA3E02401FFE43EFEE43DFDE41D
:100597003CFC90000012044CE589540F4420F58977
:1005A70043C9A0900000A3A3A3E0F404F58DD28E65
:0405B700D299D29C67
:0105BB00221D
:080717003098FDC298AF992251
:08071F008F993099FDC2992267
:1006E00075A15575A1AAEF600543B101800353B10F
:0706F000FEE4F5A1F5FF2275
:030731008FFF2215
:030000000205BC3A
:0C05BC00787FE4F6D8FD7581210206036B
:10036800A3F8E0C5F025F0F0E58215827002158348
:06037800E0C838F0E822A5
:10037E0075F008758200EF2FFFEE33FECD33CDCC36
:10038E0033CCC58233C5829BED9AEC99E5829840B9
:10039E000CF582EE9BFEED9AFDEC99FC0FD5F0D696
:1003AE00E4CEFBE4CDFAE4CCF9A88222B800C1B9C0
:1003BE000059BA002DEC8BF084CFCECDFCE5F0CBFE
:1003CE00F97818EF2FFFEE33FEED33FDEC33FCEB37
:1003DE0033FB10D703994004EB99FB0FD8E5E4F9F2
:1003EE00FA227818EF2FFFEE33FEED33FDEC33FCDF
:1003FE00C933C910D7059BE99A4007EC9BFCE99AD3
:10040E00F90FD8E0E4C9FAE4CCFB2275F010EF2F17
:10041E00FFEE33FEED33FDCC33CCC833C810D70717
:10042E009BEC9AE899400AED9BFDEC9AFCE899F852
:0E043E000FD5F0DAE4CDFBE4CCFAE4C8F922E5
:0C044C00ECF0A3EDF0A3EEF0A3EFF02223
:10045800A8828583F0D083D08212046F12046F12B1
:10046800046F12046FE473E493A3C583C5F0C583D6
:10047800C8C582C8F0A3C583C5F0C583C8C582C8EE
:010488002251
:10000300E5082403F582E43400F583E00508229033
:100013000000300703900003E475F0011204E102CD
:1000230004892000E97F2ED2008018EF540F24901A
:10003300D43440D4FF30040BEF24BFB41A00500370
:100043002461FFE50960021509050CE50C70020542
:100053000B30070E900000E475F0011204E1EF028B
:1000630004CF0206A27403D2078003E4C207F50893
:100073009000001204F8E4F509F50BF50CE50960AE
:10008300077F2012004680F5750AFFC201C200C235
:1000930002C203C205C206C208120012FF700D306D
:1000A30007057F00120057AF0CAE0B22B4255FC2C9
:1000B300D5C204120012FF24D0B40A00501A75F0FE
:1000C3000A780930D50508B6FF0106C6A426F6202E
:1000D300D5047002D20380D924CFB41A00EF5004A0
:1000E300C2E5D204020258D20180C6D20080C0D237
:1000F3000280BCD2D580BAD20580B47F20120046DC
:100103002002077401B5090040F1120003FF120039
:1001130046020080D208D2068095120003FB12002B
:1001230003FA120003F94A4B700679297A037BFF1D
:1001330020022EE509602A7E008E82758300120458
:10014300A260060EEE650A70F0C2D5EBC0E0EAC00D
:10015300E0E9C0E0EE12029FD0E0F9D0E0FAD0E08F
:10016300FB120489FF60AAEBC0E0EAC0E0E9C0E04B
:10017300120046D0E02401F9D0E03400FAD0E0FBCD
:10018300E50A0460DCD50AD980877BFF7A02799B74
:10019300D202809C791080027908C206C2088008C6
:1001A300D2D5790A8004790AC2D5E50A047002F52A
:1001B3000AE4FAFDFEFF120003FC7B082001131280
:1001C3000003FD7B1030000A120003FE120003FF40
:1001D3007B20EC3382D592D55013C3E43000069FC5
:1001E300FFE49EFEE42001039DFDE49CFCE4CBF8C8
:1001F300C201EC700CCFCECDCCE824F8F870F380BC
:1002030017C3EF33FFEE33FEED33FDEC33FCEB337B
:10021300FB994002FB0FD8E9EB300105F8D0E0C4AD
:1002230048B201C0E00AEC4D4E4F78207B0070C20B
:10023300EAB50A0040BCC0E01202A1D0F0D0E02031
:100243000104C4C0E0C4B201C0F012002FD0F0D545
:10025300F0EB020080120501011D5301975800EED7
:100263004C00EA42019B4F01A34401A3490103430C
:0802730001A955018D46018D22
:10027B0045018D4703495000F22D00F62E01192B35
:10028B0000FA2301172003322A00B24800000111A3
:10029B003F3F3F00790AA2D5200314300509B9105E
:1002AB00020404B9080104A2D5200602500104205F
:1002BB0002689202B509005034C0E07F2030031968
:1002CB007F30A20272067205500F1202F8C202C2F0
:1002DB0006C205C2087F30800F300503E9C0E0126B
:1002EB000046300503D0E0F9D0E0B509CC30051756
:1002FB007F30B9100C1200467F583004077F78808E
:10030B0003B908031200463002057F2D0200467F19
:10031B00202008F87F2B2006F322920280CF286E34
:10032B00756C6C2900D2011200033001F8C2017800
:10033B000930D50108F60200B22D5043495812007E
:10034B00032403B405004001E490034493120037E7
:0D035B00743A120037D203750904020197AD
:1005C800020648E493A3F8E493A34003F68001F2FB
:1005D80008DFF48029E493A3F85407240CC8C33334
:1005E800C4540F4420C8834004F456800146F6DF03
:1005F800E4800B0102040810204080900727E47E65
:10060800019360BCA3FF543F30E509541FFEE493F7
:10061800A360010ECF54C025E060A840B8E493A3BE
:10062800FAE493A3F8E493A3C8C582C8CAC583CAE9
:10063800F0A3C8C582C8CAC583CADFE9DEE780BEA1
:01072C0000CC
:10048900BB010689828A83E0225002E722BBFE0271
:09049900E32289828A83E49322A4
:1004A200BB010CE58229F582E5833AF583E022500F
:1004B20006E92582F8E622BBFE06E92582F8E22259
:0D04C200E58229F582E5833AF583E4932273
:1004CF00BB010689828A83F0225002F722BBFE010C
:0204DF00F32206
:1004E100F8E0FBA3A3E0F925F0F0E58215827002A4
:0704F1001583E0FA38F02248
:0904F800EBF0A3EAF0A3E9F02205
:10050100D083D082F8E4937012740193700DA3A389
:1005110093F8740193F5828883E47374029368609D
:06052100EFA3A3A380DF9D
:1006A200EFB40A07740D1206AD740A309811A899B6
:1006B200B8130CC2983098FDA899C298B811F630B8
:0706C20099FDC299F5992290
:00000001FF
