:100C660012011001000000083D41072100000000AC
:100C7600000109022200010100A03209040000015E
:100C860003010100092111010001223E000705812F
:100C96000308000A00000000000000000000000039
:100CA600000000000000000000000000000501092F
:100CB60006A101050719E029E7150025017501952B
:100CC60008810295017508810195037501050819CA
:100CD600012903910295057501910195067508266E
:0B0CE600FF000507190029918100C0E4
:100DA40048004C00000000000000004100580041D1
:070DB4000059004100560048
:100D2500C2EAE4F5E275ED0075EC0075EF0075EECD
:100D35000A75EA6775DC0275D242F5E375D18075EF
:0E0D4500E22943D10175D8FF75E107D2EA22F9
:100D7100780A7C007D017B017A00794C7E007F0836
:0A0D810012086175D30853D2FC225A
:03004300020405AF
:0D040500C0E0C0F0C083C082C0D075D00838
:1004120020D903020767E5D9543F7003020743243A
:10042200E070030206D214601924F16029240E60E0
:100432000302076575D500E5D454FC4402F5D402E5
:10044200076575D300E5D254FC4402F5D2900057FB
:100452007401F0020765900079E5DBF0E064086062
:10046200030206A5900006E090005BF0900007E012
:10047200700990005BE0D3947F400690005B747F2C
:10048200F0900079E4F0900001E090005CF09000C0
:1004920000E05460601A90005CE01424FD40030206
:1004A20006AB24FB24FD40030206AB80000206A536
:1004B20090005CE0B40B0040030206A39004C5F870
:1004C2002828730206860205D60206A30206100237
:1004D20006A30205A30204E60206A30205AE020574
:1004E200CB0206AB900003E024FE601E24E06030E5
:1004F2002421705090007574FFF0A3740CF0A37463
:1005020066F09000797412F0804090007574FFF0EC
:10051200A3740CF0A37478F0900079743BF0802AF5
:10052200900004E0701E90007574FFF0A3740CF04C
:10053200A374B3F0900079743EF09000787401F0E7
:10054200D2EC800690007974FFF0900079E0FF9081
:10055200005BE0D39F4002EFF090005BE0FFC394AA
:100562000840047F088000900079EFF07E00780058
:100572007C007D01900075E0FBA3E0FAA3E0F91294
:10058200086190005BE0FF900079E0FEC3EF9E906F
:10059200005BF0EEFF900076E48FF012088702060F
:1005A200AB900002E090005BF00206AB900054E0DA
:1005B200900000F090005BE0C3940150030206AB90
:1005C2009000797401F00206AB900002E0900054B2
:1005D200F00206AB900000E0541F6402702D900000
:1005E20004E014601D2480600E14701CE5D454BC19
:1005F2004402F5D40206ABE5D254BC4402F5D20261
:1006020006AB53D2730206AB0206A50206A5900002
:1006120000E0541FFD701B900003E0FE900002E01A
:10062200FBEB64014E7009900C7F9320E57B807395
:100632008071ED6402704B900003E0FE900002E0D6
:10064200FDED4E703B900005E0FE900004E0FDEDF4
:10065200FFEE702AEF24FE60112481601714701ED1
:10066200E5D454BF4403F5D4803FE5D4547F440C11
:10067200F5D48035E5D254BF4403F5D2802B8023D4
:100682008021801F900000E4F0A3F090005BE0FF67
:10069200C3940290007940057402F0800CEFF08060
:1006A20008800090007974FFF0900079E0FFB4FFB9
:1006B2000C90005C74FFF075DCCF020765EFD394F9
:1006C2000850048FDD800375DD0075DCC00207650C
:1006D20090005CE024FB605314705E90005BE0FFCE
:1006E200C3940840047F088000900079EFF07E00F8
:1006F20078007C007D01900075E0FBA3E0FAA3E0A6
:10070200F912086190005BE0FF900079E0FEC3EF10
:100712009E90005BF0EEFF900076E48FF012088767
:10072200900079E0F5DD63DC408038E5E35480FF3A
:1007320090005BE04FF5E3800375DD0075DC02801D
:1007420022900079E5DBF090005CE0B4090F9000A4
:1007520079E0B40108900000E090005AF075DD00E5
:1007620075DC00C2D930D81275DC0275D21075D48E
:100772001275E300C2DAC2D9C2D830DA04C2DA8012
:040782000375D8FF24
:0B078600D0D0D082D083D0F0D0E03281
:03005300020003A5
:10000300C0E0C083C082C0D075D01030C025C2C04C
:10001300900059E0FF04F0745D2FF582E43400F59D
:1000230083E5C1F0900058E004F0A3E0C3941040CE
:0E00330002E4F0C2C1D0D0D082D083D0E0323F
:10005600EFC394614023EFD3947A501D74A32FFF0E
:10006600744C2DF582E43400F583EFF090005AE0ED
:1000760020E103020404020373EFC394414023EF1B
:10008600D3945A501D74C32FFF744C2DF582E4345B
:1000960000F583EFF090005AE030E1030204040219
:1000A6000373EFC39431400BEFD39439500574EDCD
:1000B6000203F6EFB4300E744C2DF582E43400F5ED
:1000C600837427F022EFD3942F400302020CEFB47F
:1000D600200E744C2DF582E43400F583742CF02246
:1000E600EFB42110744C2DF582E43400F583741EB0
:1000F600F0020373EFB42210744C2DF582E4340041
:10010600F5837434F0020373EFB42310744C2DF5A9
:1001160082E43400F5837420F0020373EFB42410F4
:10012600744C2DF582E43400F5837421F0020373D8
:10013600EFB42510744C2DF582E43400F583742257
:10014600F0020373EFB42610744C2DF582E43400EC
:10015600F5837424F0020373EFB4270E744C2DF567
:1001660082E43400F5837434F022EFB42810744C22
:100176002DF582E43400F5837426F0020373EFB4A0
:100186002910744C2DF582E43400F5837427F002AF
:100196000373EFB42A10744C2DF582E43400F58312
:1001A6007425F0020373EFB42B10744C2DF582E422
:1001B6003400F583742EF0020373EFB42C0E744CE6
:1001C6002DF582E43400F5837436F022EFB42D0E5B
:1001D600744C2DF582E43400F583742DF022EFB4CF
:1001E6002E0E744C2DF582E43400F5837437F0221C
:1001F600EF642F6003020404744C2DF582E434008E
:10020600F5837438F022EFD3943F5078EFB43A1068
:10021600744C2DF582E43400F5837433F0020373D5
:10022600EFB43B0E744C2DF582E43400F583743341
:10023600F022EFB43C10744C2DF582E43400F583C3
:100246007436F0020373EFB43D0E744C2DF582E460
:100256003400F583742EF022EFB43E10744C2DF565
:1002660082E43400F5837437F0020373EF643F6071
:1002760003020404744C2DF582E43400F5837438CB
:10028600F0020373EFB44010744C2DF582E4340091
:10029600F583741FF0020373EFC3945B4079EFD3C9
:1002A60094605073EFB45B0E744C2DF582E4340009
:1002B600F583742FF022EFB45C0E744C2DF582E4B6
:1002C6003400F5837431F022EFB45D0E744C2DF5D5
:1002D60082E43400F5837430F022EFB45E10744C7F
:1002E6002DF582E43400F5837423F0020373EFB432
:1002F6005F0F744C2DF582E43400F583742DF08085
:100306006CEF64606003020404744C2DF582E434DF
:1003160000F5837435F022EFC3947B406EEFD394DF
:100326007F5068EFB47B0F744C2DF582E43400F5F2
:1003360083742FF08037EFB47C0F744C2DF582E474
:100346003400F5837431F08024EFB47D0F744C2DA6
:10035600F582E43400F5837430F08011EFB47E1535
:10036600744C2DF582E43400F5837435F090004C1E
:10037600E04402F022EF647F6003020404744C2D13
:10038600F582E43400F583744CF022EFC394804088
:1003960021EFD39487501BEF540FFF90004CE0FEE3
:1003A6007401C8EFC8088002C333D8FC4E90004CD5
:1003B600F022EFC394D7400AEFD394DA500474784E
:1003C600802EEFC394B0400AEFD394B350047478F0
:1003D600801EEFC394D1400AEFD394D550047478AD
:1003E600800EEFC394C14016EFD394CD50107478AD
:0F03F6002FFF744C2DF582E43400F583EFF022D5
:1009D400E4900057F0900056E0FF04F0745D2FF5AA
:1009E40082E43400F583E0FF7D0212005690005645
:1009F400E0C394104002E4F0900058E014F0E0608A
:100A040046900056E0FF245CF582E43400F583E070
:100A1400FE745D2FF582E43400F583E06E60289067
:100A24000056E004F0745D2FF582E43400F583E0B1
:100A3400FF7D03120056900056E0C394104002E478
:100A4400F0900058E014F0900058E0605A9000567E
:100A5400E0FF245CF582E43400F583E0FE745D2F4E
:100A6400F582E43400F583E06E603C900056E024A7
:100A74005BF582E43400F583E0FFEE6F60299000BB
:100A840056E0FF04F0745D2FF582E43400F583E052
:100A9400FF7D04120056900056E0C394104002E417
:100AA400F0900058E014F0900058E0606D9000560B
:100AB400E0FF245CF582E43400F583E0FE745D2FEE
:100AC400F582E43400F583E06E604F900056E02434
:100AD4005BF582E43400F583E0FFEE6F603C900048
:100AE40056E0245AF582E43400F583E0FEEF6E60AC
:100AF40029900056E0FF04F0745D2FF582E4340081
:100B0400F583E0FF7D05120056900056E0C3941073
:100B14004002E4F0900058E014F0120D717E007F62
:100B2400087D007B017A00794C1209A8900057E0F7
:100B340060FAE4900057F0120D71900057E060FAEB
:010B4400228E
:100CF100120D537F057E00120DBC120B45120D25FE
:100D0100120046D2AF75E910E4F5D3900057F09088
:100D11000078F0900078E060FA900058E060F412FA
:040D210009D480EF82
:100D530075A15575A1AA53B9BF43B98075A155753E
:0E0D6300A1AAE5B954F84403F5B9E4F5A122BC
:100D8B00EF7802CEC313CE13D8F9FFEF4E600905EF
:090D9B00A1EF1F70F61E80F32287
:100DBC00AD07AC06ED4C600E7FE87E03120D8BED9B
:070DCC001D70F11C80EE22F6
:040E250043C610228E
:100B4500C29FD29EC29DC2CDC2CC43878090007AFF
:100B550012097700000186E47B0AFAF9F890007A19
:100B6500E0FCA3E0FDA3E0FEA3E0FF1208D990009E
:100B75007EEBF090007AE0FCA3E0FDA3E0FEA3E0AD
:100B8500FFE47B0AFAF9F81208D990007A12096B8A
:100B950090007EE0C39405401F90007AE0FCA3E03E
:100BA500FDA3E0FEA3E02401FFE43EFEE43DFDE4F9
:100BB5003CFC90007A12096BE589540F4420F589B5
:100BC50043C9A090007AA3A3A3E0F404F58DD28EC7
:040BD500D299D29C43
:010BD90022F9
:080E05003098FDC298AF99225C
:080E0D008F993099FDC2992272
:0A004600C2C7D2C5D2C475C2D922C8
:080E150030C0FDC2C0AFC122D4
:080E1D008FC130C1FDD2C122DA
:100DD30075A15575A1AAEF600543B101800353B115
:070DE300FEE4F5A1F5FF227B
:030050008FFF22FD
:0A0DFB0075A15575A1AA43B110229D
:100DEA00ABE243E2B07F017E00120DBCAF038FE29B
:010DFA0022D6
:03000000020BDA16
:0C0BDA00787FE4F6D8FD758120020C2124
:10079100E709F608DFFA8046E709F208DFFA803E4A
:1007A10088828C83E709F0A3DFFA8032E309F60837
:1007B100DFFA8078E309F208DFFA807088828C839F
:1007C100E309F0A3DFFA806489828A83E0A3F60853
:1007D100DFFA805889828A83E0A3F208DFFA804C2D
:1007E10080D280FA80C680D4806980F28033801004
:1007F10080A680EA809A80A880DA80E280CA80336D
:1008010089828A83ECFAE493A3C8C582C8CCC583E4
:10081100CCF0A3C8C582C8CCC583CCDFE9DEE780B4
:100821000D89828A83E493A3F608DFF9ECFAA9F033
:10083100EDFB2289828A83ECFAE0A3C8C582C8CC89
:10084100C583CCF0A3C8C582C8CCC583CCDFEADEA2
:10085100E880DB89828A83E493A3F208DFF980CC04
:1008610088F0EF60010E4E60C388F0ED2402B404FD
:100871000050B9F582EB2402B4040050AF232345A4
:0608810082239007E173E1
:10088700C5F0F8A3E028F0C5F0F8E58215827002FC
:060897001583E038F02299
:10089D0075F008758200EF2FFFEE33FECD33CDCC12
:1008AD0033CCC58233C5829BED9AEC99E582984095
:1008BD000CF582EE9BFEED9AFDEC99FC0FD5F0D672
:1008CD00E4CEFBE4CDFAE4CCF9A88222B800C1B99C
:1008DD000059BA002DEC8BF084CFCECDFCE5F0CBDA
:1008ED00F97818EF2FFFEE33FEED33FDEC33FCEB13
:1008FD0033FB10D703994004EB99FB0FD8E5E4F9CE
:10090D00FA227818EF2FFFEE33FEED33FDEC33FCBA
:10091D00C933C910D7059BE99A4007EC9BFCE99AAE
:10092D00F90FD8E0E4C9FAE4CCFB2275F010EF2FF3
:10093D00FFEE33FEED33FDCC33CCC833C810D707F3
:10094D009BEC9AE899400AED9BFDEC9AFCE899F82E
:0E095D000FD5F0DAE4CDFBE4CCFAE4C8F922C1
:0C096B00ECF0A3EDF0A3EEF0A3EFF022FF
:10097700A8828583F0D083D08212098E12098E1245
:10098700098E12098EE473E493A3C583C5F0C5836A
:10099700C8C582C8F0A3C583C5F0C583C8C582C8CA
:0109A700222D
:1009A800EF4E6012EF60010EEDBB010B89828A8366
:1009B800F0A3DFFCDEFA2289F05007F709DFFCA973
:0C09C800F022BBFEFCF309DFFCA9F022CA
:100BE600020CF1E493A3F8E493A34003F68001F228
:100BF60008DFF48029E493A3F85407240CC8C33310
:100C0600C4540F4420C8834004F456800146F6DFDE
:100C1600E4800B0102040810204080900DA4E47EBD
:100C2600019360BCA3FF543F30E509541FFEE493D3
:100C3600A360010ECF54C025E060A840B8E493A39A
:100C4600FAE493A3F8E493A3C8C582C8CAC583CAC5
:100C5600F0A3C8C582C8CAC583CADFE9DEE780BE7D
:010DBB000037
:00000001FF
